{
    "_format": "hh-sol-artifact-1",
    "contractName": "AIDAOStakingVault",
    "sourceName": "contracts/AIDAOVault.sol",
    "abi": [
        {
            "inputs": [
                {
                    "internalType": "contract IERC20",
                    "name": "_aidao",
                    "type": "address"
                },
                {
                    "internalType": "contract IvAIDAO",
                    "name": "_vToken",
                    "type": "address"
                }
            ],
            "stateMutability": "nonpayable",
            "type": "constructor"
        },
        {
            "anonymous": false,
            "inputs": [
                {
                    "indexed": true,
                    "internalType": "address",
                    "name": "token",
                    "type": "address"
                },
                {
                    "indexed": false,
                    "internalType": "uint256",
                    "name": "amount",
                    "type": "uint256"
                }
            ],
            "name": "EmergencyRecovered",
            "type": "event"
        },
        {
            "anonymous": false,
            "inputs": [
                {
                    "indexed": true,
                    "internalType": "address",
                    "name": "user",
                    "type": "address"
                },
                {
                    "indexed": false,
                    "internalType": "uint256",
                    "name": "oldLockEnd",
                    "type": "uint256"
                },
                {
                    "indexed": false,
                    "internalType": "uint256",
                    "name": "newLockEnd",
                    "type": "uint256"
                }
            ],
            "name": "LockExtended",
            "type": "event"
        },
        {
            "anonymous": false,
            "inputs": [
                {
                    "indexed": true,
                    "internalType": "address",
                    "name": "previousOwner",
                    "type": "address"
                },
                {
                    "indexed": true,
                    "internalType": "address",
                    "name": "newOwner",
                    "type": "address"
                }
            ],
            "name": "OwnershipTransferred",
            "type": "event"
        },
        {
            "anonymous": false,
            "inputs": [
                {
                    "indexed": true,
                    "internalType": "address",
                    "name": "user",
                    "type": "address"
                },
                {
                    "indexed": false,
                    "internalType": "uint256",
                    "name": "amount",
                    "type": "uint256"
                },
                {
                    "indexed": false,
                    "internalType": "uint256",
                    "name": "newLockEnd",
                    "type": "uint256"
                }
            ],
            "name": "Staked",
            "type": "event"
        },
        {
            "anonymous": false,
            "inputs": [
                {
                    "indexed": true,
                    "internalType": "address",
                    "name": "user",
                    "type": "address"
                },
                {
                    "indexed": false,
                    "internalType": "uint256",
                    "name": "amount",
                    "type": "uint256"
                }
            ],
            "name": "Unstaked",
            "type": "event"
        },
        {
            "inputs": [],
            "name": "LOCK_DURATION",
            "outputs": [
                {
                    "internalType": "uint256",
                    "name": "",
                    "type": "uint256"
                }
            ],
            "stateMutability": "view",
            "type": "function"
        },
        {
            "inputs": [],
            "name": "aidao",
            "outputs": [
                {
                    "internalType": "contract IERC20",
                    "name": "",
                    "type": "address"
                }
            ],
            "stateMutability": "view",
            "type": "function"
        },
        {
            "inputs": [
                {
                    "internalType": "address",
                    "name": "",
                    "type": "address"
                }
            ],
            "name": "lockEnd",
            "outputs": [
                {
                    "internalType": "uint256",
                    "name": "",
                    "type": "uint256"
                }
            ],
            "stateMutability": "view",
            "type": "function"
        },
        {
            "inputs": [],
            "name": "owner",
            "outputs": [
                {
                    "internalType": "address",
                    "name": "",
                    "type": "address"
                }
            ],
            "stateMutability": "view",
            "type": "function"
        },
        {
            "inputs": [
                {
                    "internalType": "address",
                    "name": "token",
                    "type": "address"
                },
                {
                    "internalType": "uint256",
                    "name": "amount",
                    "type": "uint256"
                }
            ],
            "name": "recoverToken",
            "outputs": [],
            "stateMutability": "nonpayable",
            "type": "function"
        },
        {
            "inputs": [],
            "name": "renounceOwnership",
            "outputs": [],
            "stateMutability": "nonpayable",
            "type": "function"
        },
        {
            "inputs": [
                {
                    "internalType": "uint256",
                    "name": "amount",
                    "type": "uint256"
                }
            ],
            "name": "stake",
            "outputs": [],
            "stateMutability": "nonpayable",
            "type": "function"
        },
        {
            "inputs": [
                {
                    "internalType": "address",
                    "name": "",
                    "type": "address"
                }
            ],
            "name": "staked",
            "outputs": [
                {
                    "internalType": "uint256",
                    "name": "",
                    "type": "uint256"
                }
            ],
            "stateMutability": "view",
            "type": "function"
        },
        {
            "inputs": [
                {
                    "internalType": "address",
                    "name": "user",
                    "type": "address"
                }
            ],
            "name": "timeUntilUnlock",
            "outputs": [
                {
                    "internalType": "uint256",
                    "name": "",
                    "type": "uint256"
                }
            ],
            "stateMutability": "view",
            "type": "function"
        },
        {
            "inputs": [],
            "name": "totalStaked",
            "outputs": [
                {
                    "internalType": "uint256",
                    "name": "",
                    "type": "uint256"
                }
            ],
            "stateMutability": "view",
            "type": "function"
        },
        {
            "inputs": [
                {
                    "internalType": "address",
                    "name": "newOwner",
                    "type": "address"
                }
            ],
            "name": "transferOwnership",
            "outputs": [],
            "stateMutability": "nonpayable",
            "type": "function"
        },
        {
            "inputs": [
                {
                    "internalType": "address",
                    "name": "user",
                    "type": "address"
                }
            ],
            "name": "unlocked",
            "outputs": [
                {
                    "internalType": "bool",
                    "name": "",
                    "type": "bool"
                }
            ],
            "stateMutability": "view",
            "type": "function"
        },
        {
            "inputs": [
                {
                    "internalType": "uint256",
                    "name": "amount",
                    "type": "uint256"
                }
            ],
            "name": "unstake",
            "outputs": [],
            "stateMutability": "nonpayable",
            "type": "function"
        },
        {
            "inputs": [],
            "name": "vToken",
            "outputs": [
                {
                    "internalType": "contract IvAIDAO",
                    "name": "",
                    "type": "address"
                }
            ],
            "stateMutability": "view",
            "type": "function"
        }
    ],
    "bytecode": "0x60c060405234801561001057600080fd5b5060405161129438038061129483398101604081905261002f91610128565b61003833610098565b600180556001600160a01b0382161580159061005c57506001600160a01b03811615155b6100815760405162461bcd60e51b815260040161007890610165565b60405180910390fd5b6001600160a01b039182166080521660a05261018c565b600080546001600160a01b038381166001600160a01b0319831681178455604051919092169283917f8be0079c531659141344cd1fd0a4f28419497f9722a3daafe3b4186f6b6457e09190a35050565b60006001600160a01b0382165b92915050565b60006100f5826100e8565b61010f816100fb565b811461011a57600080fd5b50565b80516100f581610106565b6000806040838503121561013e5761013e600080fd5b600061014a858561011d565b925050602061015b8582860161011d565b9150509250929050565b602080825281016100f58160098152682d32b9379030b2323960b91b602082015260400190565b60805160a0516110c06101d46000396000818161019201528181610350015261058e01526000818161021f015281816103c601528181610485015261065801526110c06000f3fe608060405234801561001057600080fd5b50600436106100ea5760003560e01c80639bb1a99c1161008c578063d0228e8f11610066578063d0228e8f146101e7578063d1846d0c146101fa578063e79403861461021a578063f2fde38b1461024157600080fd5b80639bb1a99c1461018d578063a694fc3a146101c1578063b29a8140146101d457600080fd5b8063715018a6116100c8578063715018a614610143578063817b1cd21461014b5780638da5cb5b1461015457806398807d841461016d57600080fd5b806323792279146100ef5780632e17de7814610125578063485d38341461013a575b600080fd5b61010f6100fd366004610aec565b60036020526000908152604090205481565b60405161011c9190610b15565b60405180910390f35b610138610133366004610b34565b610254565b005b61010f61012c81565b61013861043c565b61010f60045481565b6000546001600160a01b031660405161011c9190610b5e565b61010f61017b366004610aec565b60026020526000908152604090205481565b6101b47f000000000000000000000000000000000000000000000000000000000000000081565b60405161011c9190610b9c565b6101386101cf366004610b34565b610450565b6101386101e2366004610baa565b61064e565b61010f6101f5366004610aec565b610712565b61020d610208366004610aec565b610757565b60405161011c9190610bef565b6101b47f000000000000000000000000000000000000000000000000000000000000000081565b61013861024f366004610aec565b610769565b61025c6107a0565b600081116102855760405162461bcd60e51b815260040161027c90610c34565b60405180910390fd5b336000908152600260205260409020548111156102b45760405162461bcd60e51b815260040161027c90610c78565b336000908152600360205260409020544210156102e35760405162461bcd60e51b815260040161027c90610cbc565b3360009081526002602052604081208054839290610302908490610cfb565b92505081905550806004600082825461031b9190610cfb565b90915550506040517f9dc29fac0000000000000000000000000000000000000000000000000000000081526001600160a01b037f00000000000000000000000000000000000000000000000000000000000000001690639dc29fac906103879033908590600401610d0e565b600060405180830381600087803b1580156103a157600080fd5b505af11580156103b5573d6000803e3d6000fd5b506103ef9250506001600160a01b037f000000000000000000000000000000000000000000000000000000000000000016905033836107c9565b336001600160a01b03167f0f5bb82176feb1b5e747e28471aa92156a04d9f3ab9f45f28e2d704232b93f75826040516104289190610b15565b60405180910390a261043960018055565b50565b610444610851565b61044e600061087b565b565b6104586107a0565b600081116104785760405162461bcd60e51b815260040161027c90610c34565b6104ad6001600160a01b037f0000000000000000000000000000000000000000000000000000000000000000163330846108e3565b33600090815260026020526040812080548392906104cc908490610d29565b9250508190555080600460008282546104e59190610d29565b9091555050336000908152600360205260408120549061050761012c42610d29565b90508181111561055e573360008181526003602052604090819020839055517f050932e79e5bc73d7c0e6856f9b80ae760803919f72fdb530c47608b3c2ffbd8906105559085908590610d3c565b60405180910390a25b6040517f40c10f190000000000000000000000000000000000000000000000000000000081526001600160a01b037f000000000000000000000000000000000000000000000000000000000000000016906340c10f19906105c59033908790600401610d0e565b600060405180830381600087803b1580156105df57600080fd5b505af11580156105f3573d6000803e3d6000fd5b505033600081815260036020526040908190205490519193507f1449c6dd7851abc30abf37f57715f492010519147cc2652fbc38202c18a6ee90925061063b91879190610d3c565b60405180910390a2505061043960018055565b610656610851565b7f00000000000000000000000000000000000000000000000000000000000000006001600160a01b0316826001600160a01b0316036106a75760405162461bcd60e51b815260040161027c90610d7e565b6106cd6106bc6000546001600160a01b031690565b6001600160a01b03841690836107c9565b816001600160a01b03167f1115307ac794dd199ebee09e669ca430434628a9d4c1cf126f4fe8d2202ce702826040516107069190610b15565b60405180910390a25050565b6001600160a01b0381166000908152600360205260408120548015806107385750804210155b156107465750600092915050565b6107504282610cfb565b9392505050565b600061076282610712565b1592915050565b610771610851565b6001600160a01b0381166107975760405162461bcd60e51b815260040161027c90610deb565b6104398161087b565b6002600154036107c25760405162461bcd60e51b815260040161027c90610e2f565b6002600155565b61084c8363a9059cbb60e01b84846040516024016107e8929190610d0e565b60408051601f198184030181529190526020810180517bffffffffffffffffffffffffffffffffffffffffffffffffffffffff167fffffffff000000000000000000000000000000000000000000000000000000009093169290921790915261090a565b505050565b6000546001600160a01b0316331461044e5760405162461bcd60e51b815260040161027c90610e71565b600080546001600160a01b038381167fffffffffffffffffffffffff0000000000000000000000000000000000000000831681178455604051919092169283917f8be0079c531659141344cd1fd0a4f28419497f9722a3daafe3b4186f6b6457e09190a35050565b610904846323b872dd60e01b8585856040516024016107e893929190610e81565b50505050565b600061095f826040518060400160405280602081526020017f5361666545524332303a206c6f772d6c6576656c2063616c6c206661696c6564815250856001600160a01b03166109999092919063ffffffff16565b80519091501561084c578080602001905181019061097d9190610ebc565b61084c5760405162461bcd60e51b815260040161027c90610f37565b60606109a884846000856109b0565b949350505050565b6060824710156109d25760405162461bcd60e51b815260040161027c90610fa1565b600080866001600160a01b031685876040516109ee9190610ff7565b60006040518083038185875af1925050503d8060008114610a2b576040519150601f19603f3d011682016040523d82523d6000602084013e610a30565b606091505b5091509150610a4187838387610a4c565b979650505050505050565b60608315610a8b578251600003610a84576001600160a01b0385163b610a845760405162461bcd60e51b815260040161027c90611037565b50816109a8565b6109a88383815115610aa05781518083602001fd5b8060405162461bcd60e51b815260040161027c9190611079565b60006001600160a01b0382165b92915050565b610ad681610aba565b811461043957600080fd5b8035610ac781610acd565b600060208284031215610b0157610b01600080fd5b60006109a88484610ae1565b805b82525050565b60208101610ac78284610b0d565b80610ad6565b8035610ac781610b23565b600060208284031215610b4957610b49600080fd5b60006109a88484610b29565b610b0f81610aba565b60208101610ac78284610b55565b60006001600160a01b038216610ac7565b6000610ac782610b6c565b6000610ac782610b7d565b610b0f81610b88565b60208101610ac78284610b93565b60008060408385031215610bc057610bc0600080fd5b6000610bcc8585610ae1565b9250506020610bdd85828601610b29565b9150509250929050565b801515610b0f565b60208101610ac78284610be7565b600881526000602082017f5a65726f20616d74000000000000000000000000000000000000000000000000815291505b5060200190565b60208082528101610ac781610bfd565b600c81526000602082017f496e73756666696369656e74000000000000000000000000000000000000000081529150610c2d565b60208082528101610ac781610c44565b600681526000602082017f4c6f636b6564000000000000000000000000000000000000000000000000000081529150610c2d565b60208082528101610ac781610c88565b7f4e487b7100000000000000000000000000000000000000000000000000000000600052601160045260246000fd5b81810381811115610ac757610ac7610ccc565b60408101610d1c8285610b55565b6107506020830184610b0d565b80820180821115610ac757610ac7610ccc565b60408101610d1c8285610b0d565b600881526000602082017f6e6f20414944414f00000000000000000000000000000000000000000000000081529150610c2d565b60208082528101610ac781610d4a565b602681526000602082017f4f776e61626c653a206e6577206f776e657220697320746865207a65726f206181527f6464726573730000000000000000000000000000000000000000000000000000602082015291505b5060400190565b60208082528101610ac781610d8e565b601f81526000602082017f5265656e7472616e637947756172643a207265656e7472616e742063616c6c0081529150610c2d565b60208082528101610ac781610dfb565b60208082527f4f776e61626c653a2063616c6c6572206973206e6f7420746865206f776e657291019081526000610c2d565b60208082528101610ac781610e3f565b60608101610e8f8286610b55565b610e9c6020830185610b55565b6109a86040830184610b0d565b801515610ad6565b8051610ac781610ea9565b600060208284031215610ed157610ed1600080fd5b60006109a88484610eb1565b602a81526000602082017f5361666545524332303a204552433230206f7065726174696f6e20646964206e81527f6f7420737563636565640000000000000000000000000000000000000000000060208201529150610de4565b60208082528101610ac781610edd565b602681526000602082017f416464726573733a20696e73756666696369656e742062616c616e636520666f81527f722063616c6c000000000000000000000000000000000000000000000000000060208201529150610de4565b60208082528101610ac781610f47565b60005b83811015610fcc578181015183820152602001610fb4565b50506000910152565b6000610fdf825190565b610fed818560208601610fb1565b9290920192915050565b60006107508284610fd5565b601d81526000602082017f416464726573733a2063616c6c20746f206e6f6e2d636f6e747261637400000081529150610c2d565b60208082528101610ac781611003565b6000611051825190565b808452602084019350611068818560208601610fb1565b601f01601f19169290920192915050565b60208082528101610750818461104756fea2646970667358221220724865600c86dd50c75d8c82077a89e7d6f1da2c0d0504a1b272b75e4fd5b84a64736f6c634300081c0033",
    "linkReferences": {},
    "deployedLinkReferences": {}
}