{
    "_format": "hh-sol-artifact-1",
    "contractName": "vAIDAOToken",
    "sourceName": "contracts/vAIDAO.sol",
    "abi": [
        {
            "inputs": [
                {
                    "internalType": "string",
                    "name": "_name",
                    "type": "string"
                },
                {
                    "internalType": "string",
                    "name": "_symbol",
                    "type": "string"
                }
            ],
            "stateMutability": "nonpayable",
            "type": "constructor"
        },
        {
            "inputs": [],
            "name": "Forbidden",
            "type": "error"
        },
        {
            "anonymous": false,
            "inputs": [
                {
                    "indexed": true,
                    "internalType": "address",
                    "name": "owner",
                    "type": "address"
                },
                {
                    "indexed": true,
                    "internalType": "address",
                    "name": "spender",
                    "type": "address"
                },
                {
                    "indexed": false,
                    "internalType": "uint256",
                    "name": "value",
                    "type": "uint256"
                }
            ],
            "name": "Approval",
            "type": "event"
        },
        {
            "anonymous": false,
            "inputs": [
                {
                    "indexed": true,
                    "internalType": "address",
                    "name": "delegator",
                    "type": "address"
                },
                {
                    "indexed": true,
                    "internalType": "address",
                    "name": "delegatee",
                    "type": "address"
                },
                {
                    "indexed": false,
                    "internalType": "uint256",
                    "name": "amountAdded",
                    "type": "uint256"
                },
                {
                    "indexed": false,
                    "internalType": "uint256",
                    "name": "newTotal",
                    "type": "uint256"
                }
            ],
            "name": "DelegateAdded",
            "type": "event"
        },
        {
            "anonymous": false,
            "inputs": [
                {
                    "indexed": true,
                    "internalType": "address",
                    "name": "delegator",
                    "type": "address"
                },
                {
                    "indexed": true,
                    "internalType": "address",
                    "name": "fromDelegate",
                    "type": "address"
                },
                {
                    "indexed": true,
                    "internalType": "address",
                    "name": "toDelegate",
                    "type": "address"
                }
            ],
            "name": "DelegateChanged",
            "type": "event"
        },
        {
            "anonymous": false,
            "inputs": [
                {
                    "indexed": true,
                    "internalType": "address",
                    "name": "delegator",
                    "type": "address"
                },
                {
                    "indexed": true,
                    "internalType": "address",
                    "name": "delegatee",
                    "type": "address"
                }
            ],
            "name": "DelegateRemoved",
            "type": "event"
        },
        {
            "anonymous": false,
            "inputs": [
                {
                    "indexed": true,
                    "internalType": "address",
                    "name": "src",
                    "type": "address"
                },
                {
                    "indexed": false,
                    "internalType": "uint256",
                    "name": "oldVotes",
                    "type": "uint256"
                },
                {
                    "indexed": false,
                    "internalType": "uint256",
                    "name": "newVotes",
                    "type": "uint256"
                }
            ],
            "name": "DelegateVotesAdded",
            "type": "event"
        },
        {
            "anonymous": false,
            "inputs": [
                {
                    "indexed": true,
                    "internalType": "address",
                    "name": "delegate",
                    "type": "address"
                },
                {
                    "indexed": false,
                    "internalType": "uint256",
                    "name": "previousBalance",
                    "type": "uint256"
                },
                {
                    "indexed": false,
                    "internalType": "uint256",
                    "name": "newBalance",
                    "type": "uint256"
                }
            ],
            "name": "DelegateVotesChanged",
            "type": "event"
        },
        {
            "anonymous": false,
            "inputs": [
                {
                    "indexed": true,
                    "internalType": "address",
                    "name": "previousOwner",
                    "type": "address"
                },
                {
                    "indexed": true,
                    "internalType": "address",
                    "name": "newOwner",
                    "type": "address"
                }
            ],
            "name": "OwnershipTransferred",
            "type": "event"
        },
        {
            "anonymous": false,
            "inputs": [
                {
                    "indexed": true,
                    "internalType": "address",
                    "name": "from",
                    "type": "address"
                },
                {
                    "indexed": true,
                    "internalType": "address",
                    "name": "to",
                    "type": "address"
                },
                {
                    "indexed": false,
                    "internalType": "uint256",
                    "name": "value",
                    "type": "uint256"
                }
            ],
            "name": "Transfer",
            "type": "event"
        },
        {
            "inputs": [],
            "name": "DOMAIN_SEPARATOR",
            "outputs": [
                {
                    "internalType": "bytes32",
                    "name": "",
                    "type": "bytes32"
                }
            ],
            "stateMutability": "view",
            "type": "function"
        },
        {
            "inputs": [
                {
                    "internalType": "address",
                    "name": "delegatee",
                    "type": "address"
                },
                {
                    "internalType": "uint256",
                    "name": "votingPower",
                    "type": "uint256"
                }
            ],
            "name": "addDelegate",
            "outputs": [],
            "stateMutability": "nonpayable",
            "type": "function"
        },
        {
            "inputs": [
                {
                    "internalType": "address",
                    "name": "owner",
                    "type": "address"
                },
                {
                    "internalType": "address",
                    "name": "spender",
                    "type": "address"
                }
            ],
            "name": "allowance",
            "outputs": [
                {
                    "internalType": "uint256",
                    "name": "",
                    "type": "uint256"
                }
            ],
            "stateMutability": "view",
            "type": "function"
        },
        {
            "inputs": [
                {
                    "internalType": "address",
                    "name": "spender",
                    "type": "address"
                },
                {
                    "internalType": "uint256",
                    "name": "amount",
                    "type": "uint256"
                }
            ],
            "name": "approve",
            "outputs": [
                {
                    "internalType": "bool",
                    "name": "",
                    "type": "bool"
                }
            ],
            "stateMutability": "nonpayable",
            "type": "function"
        },
        {
            "inputs": [
                {
                    "internalType": "address",
                    "name": "account",
                    "type": "address"
                }
            ],
            "name": "balanceOf",
            "outputs": [
                {
                    "internalType": "uint256",
                    "name": "",
                    "type": "uint256"
                }
            ],
            "stateMutability": "view",
            "type": "function"
        },
        {
            "inputs": [
                {
                    "internalType": "address",
                    "name": "account",
                    "type": "address"
                },
                {
                    "internalType": "uint256",
                    "name": "amount",
                    "type": "uint256"
                }
            ],
            "name": "burn",
            "outputs": [],
            "stateMutability": "nonpayable",
            "type": "function"
        },
        {
            "inputs": [
                {
                    "internalType": "address",
                    "name": "account",
                    "type": "address"
                },
                {
                    "internalType": "uint32",
                    "name": "pos",
                    "type": "uint32"
                }
            ],
            "name": "checkpoints",
            "outputs": [
                {
                    "components": [
                        {
                            "internalType": "uint32",
                            "name": "fromBlock",
                            "type": "uint32"
                        },
                        {
                            "internalType": "uint224",
                            "name": "votes",
                            "type": "uint224"
                        }
                    ],
                    "internalType": "struct ERC20Votes.Checkpoint",
                    "name": "",
                    "type": "tuple"
                }
            ],
            "stateMutability": "view",
            "type": "function"
        },
        {
            "inputs": [],
            "name": "decimals",
            "outputs": [
                {
                    "internalType": "uint8",
                    "name": "",
                    "type": "uint8"
                }
            ],
            "stateMutability": "view",
            "type": "function"
        },
        {
            "inputs": [
                {
                    "internalType": "address",
                    "name": "spender",
                    "type": "address"
                },
                {
                    "internalType": "uint256",
                    "name": "subtractedValue",
                    "type": "uint256"
                }
            ],
            "name": "decreaseAllowance",
            "outputs": [
                {
                    "internalType": "bool",
                    "name": "",
                    "type": "bool"
                }
            ],
            "stateMutability": "nonpayable",
            "type": "function"
        },
        {
            "inputs": [
                {
                    "internalType": "address",
                    "name": "account",
                    "type": "address"
                }
            ],
            "name": "getDelegatesWithPower",
            "outputs": [
                {
                    "components": [
                        {
                            "internalType": "address",
                            "name": "delegatee",
                            "type": "address"
                        },
                        {
                            "internalType": "uint256",
                            "name": "votingPower",
                            "type": "uint256"
                        }
                    ],
                    "internalType": "struct IVotes.DelegateInfo[]",
                    "name": "",
                    "type": "tuple[]"
                }
            ],
            "stateMutability": "view",
            "type": "function"
        },
        {
            "inputs": [
                {
                    "internalType": "uint256",
                    "name": "blockNumber",
                    "type": "uint256"
                }
            ],
            "name": "getPastTotalSupply",
            "outputs": [
                {
                    "internalType": "uint256",
                    "name": "",
                    "type": "uint256"
                }
            ],
            "stateMutability": "view",
            "type": "function"
        },
        {
            "inputs": [
                {
                    "internalType": "address",
                    "name": "account",
                    "type": "address"
                },
                {
                    "internalType": "uint256",
                    "name": "blockNumber",
                    "type": "uint256"
                }
            ],
            "name": "getPastVotes",
            "outputs": [
                {
                    "internalType": "uint256",
                    "name": "",
                    "type": "uint256"
                }
            ],
            "stateMutability": "view",
            "type": "function"
        },
        {
            "inputs": [
                {
                    "internalType": "address",
                    "name": "account",
                    "type": "address"
                }
            ],
            "name": "getVotes",
            "outputs": [
                {
                    "internalType": "uint256",
                    "name": "",
                    "type": "uint256"
                }
            ],
            "stateMutability": "view",
            "type": "function"
        },
        {
            "inputs": [
                {
                    "internalType": "address",
                    "name": "spender",
                    "type": "address"
                },
                {
                    "internalType": "uint256",
                    "name": "addedValue",
                    "type": "uint256"
                }
            ],
            "name": "increaseAllowance",
            "outputs": [
                {
                    "internalType": "bool",
                    "name": "",
                    "type": "bool"
                }
            ],
            "stateMutability": "nonpayable",
            "type": "function"
        },
        {
            "inputs": [
                {
                    "internalType": "address",
                    "name": "account",
                    "type": "address"
                },
                {
                    "internalType": "uint256",
                    "name": "amount",
                    "type": "uint256"
                }
            ],
            "name": "mint",
            "outputs": [],
            "stateMutability": "nonpayable",
            "type": "function"
        },
        {
            "inputs": [],
            "name": "name",
            "outputs": [
                {
                    "internalType": "string",
                    "name": "",
                    "type": "string"
                }
            ],
            "stateMutability": "view",
            "type": "function"
        },
        {
            "inputs": [
                {
                    "internalType": "address",
                    "name": "owner",
                    "type": "address"
                }
            ],
            "name": "nonces",
            "outputs": [
                {
                    "internalType": "uint256",
                    "name": "",
                    "type": "uint256"
                }
            ],
            "stateMutability": "view",
            "type": "function"
        },
        {
            "inputs": [
                {
                    "internalType": "address",
                    "name": "account",
                    "type": "address"
                }
            ],
            "name": "numCheckpoints",
            "outputs": [
                {
                    "internalType": "uint32",
                    "name": "",
                    "type": "uint32"
                }
            ],
            "stateMutability": "view",
            "type": "function"
        },
        {
            "inputs": [],
            "name": "owner",
            "outputs": [
                {
                    "internalType": "address",
                    "name": "",
                    "type": "address"
                }
            ],
            "stateMutability": "view",
            "type": "function"
        },
        {
            "inputs": [
                {
                    "internalType": "address",
                    "name": "owner",
                    "type": "address"
                },
                {
                    "internalType": "address",
                    "name": "spender",
                    "type": "address"
                },
                {
                    "internalType": "uint256",
                    "name": "value",
                    "type": "uint256"
                },
                {
                    "internalType": "uint256",
                    "name": "deadline",
                    "type": "uint256"
                },
                {
                    "internalType": "uint8",
                    "name": "v",
                    "type": "uint8"
                },
                {
                    "internalType": "bytes32",
                    "name": "r",
                    "type": "bytes32"
                },
                {
                    "internalType": "bytes32",
                    "name": "s",
                    "type": "bytes32"
                }
            ],
            "name": "permit",
            "outputs": [],
            "stateMutability": "nonpayable",
            "type": "function"
        },
        {
            "inputs": [
                {
                    "internalType": "address",
                    "name": "delegatee",
                    "type": "address"
                }
            ],
            "name": "removeDelegate",
            "outputs": [],
            "stateMutability": "nonpayable",
            "type": "function"
        },
        {
            "inputs": [],
            "name": "renounceOwnership",
            "outputs": [],
            "stateMutability": "nonpayable",
            "type": "function"
        },
        {
            "inputs": [
                {
                    "internalType": "address",
                    "name": "account",
                    "type": "address"
                },
                {
                    "internalType": "bool",
                    "name": "allowed",
                    "type": "bool"
                }
            ],
            "name": "setMinter",
            "outputs": [],
            "stateMutability": "nonpayable",
            "type": "function"
        },
        {
            "inputs": [],
            "name": "symbol",
            "outputs": [
                {
                    "internalType": "string",
                    "name": "",
                    "type": "string"
                }
            ],
            "stateMutability": "view",
            "type": "function"
        },
        {
            "inputs": [],
            "name": "totalSupply",
            "outputs": [
                {
                    "internalType": "uint256",
                    "name": "",
                    "type": "uint256"
                }
            ],
            "stateMutability": "view",
            "type": "function"
        },
        {
            "inputs": [
                {
                    "internalType": "address",
                    "name": "to",
                    "type": "address"
                },
                {
                    "internalType": "uint256",
                    "name": "amount",
                    "type": "uint256"
                }
            ],
            "name": "transfer",
            "outputs": [
                {
                    "internalType": "bool",
                    "name": "",
                    "type": "bool"
                }
            ],
            "stateMutability": "nonpayable",
            "type": "function"
        },
        {
            "inputs": [
                {
                    "internalType": "address",
                    "name": "from",
                    "type": "address"
                },
                {
                    "internalType": "address",
                    "name": "to",
                    "type": "address"
                },
                {
                    "internalType": "uint256",
                    "name": "amount",
                    "type": "uint256"
                }
            ],
            "name": "transferFrom",
            "outputs": [
                {
                    "internalType": "bool",
                    "name": "",
                    "type": "bool"
                }
            ],
            "stateMutability": "nonpayable",
            "type": "function"
        },
        {
            "inputs": [
                {
                    "internalType": "address",
                    "name": "newOwner",
                    "type": "address"
                }
            ],
            "name": "transferOwnership",
            "outputs": [],
            "stateMutability": "nonpayable",
            "type": "function"
        }
    ],
    "bytecode": "0x61014060405234801561001157600080fd5b506040516130bf3803806130bf83398101604081905261003091610290565b6040805180820190915260018152603160f81b6020820152829081908184600361005a83826103ec565b50600461006782826103ec565b50505061008061007b6100e760201b60201c565b6100eb565b815160208084019190912082519183019190912060e08290526101008190524660a0527f8b73c3c69bb8fe3d512ecc4cf759cc79239f7b179b0ffacaa9a75d522b39400f6100cf81848461013d565b6080523060c052610120525061051d95505050505050565b3390565b600580546001600160a01b038381166001600160a01b0319831681179093556040519116919082907f8be0079c531659141344cd1fd0a4f28419497f9722a3daafe3b4186f6b6457e090600090a35050565b600083838346306040516020016101589594939291906104d1565b6040516020818303038152906040528051906020012090509392505050565b634e487b7160e01b600052604160045260246000fd5b601f19601f83011681018181106001600160401b03821117156101b2576101b2610177565b6040525050565b60006101c460405190565b90506101d0828261018d565b919050565b60006001600160401b038211156101ee576101ee610177565b601f19601f83011660200192915050565b60005b8381101561021a578181015183820152602001610202565b50506000910152565b6000610236610231846101d5565b6101b9565b90508281526020810184848401111561025157610251600080fd5b61025c8482856101ff565b509392505050565b600082601f83011261027857610278600080fd5b8151610288848260208601610223565b949350505050565b600080604083850312156102a6576102a6600080fd5b82516001600160401b038111156102bf576102bf600080fd5b6102cb85828601610264565b92505060208301516001600160401b038111156102ea576102ea600080fd5b6102f685828601610264565b9150509250929050565b634e487b7160e01b600052602260045260246000fd5b60028104600182168061032a57607f821691505b60208210810361033c5761033c610300565b50919050565b600061035161034e8381565b90565b92915050565b61036083610342565b815460001960089490940293841b1916921b91909117905550565b6000610388818484610357565b505050565b818110156103a8576103a060008261037b565b60010161038d565b5050565b601f821115610388576000818152602090206020601f850104810160208510156103d35750805b6103e56020601f86010483018261038d565b5050505050565b81516001600160401b0381111561040557610405610177565b61040f8254610316565b61041a8282856103ac565b6020601f83116001811461044e57600084156104365750858201515b600019600886021c19811660028602178655506104a7565b600085815260208120601f198616915b8281101561047e578885015182556020948501946001909201910161045e565b8683101561049a5784890151600019601f89166008021c191682555b6001600288020188555050505b505050505050565b805b82525050565b60006001600160a01b038216610351565b6104b1816104b7565b60a081016104df82886104af565b6104ec60208301876104af565b6104f960408301866104af565b61050660608301856104af565b61051360808301846104c8565b9695505050505050565b60805160a05160c05160e0516101005161012051612b5361056c600039600061103a0152600061107c0152600061105b01526000610fbf01526000610fe9015260006110130152612b536000f3fe608060405234801561001057600080fd5b50600436106101c45760003560e01c8063715018a6116100f9578063a457c2d711610097578063d505accf11610071578063d505accf146103ba578063dd62ed3e146103cd578063f1127ed814610406578063f2fde38b1461042657600080fd5b8063a457c2d714610381578063a9059cbb14610394578063cf456ae7146103a757600080fd5b80638e539e8c116100d35780638e539e8c1461034057806395d89b41146103535780639ab24eb01461035b5780639dc29fac1461036e57600080fd5b8063715018a61461030c5780637ecebe00146103145780638da5cb5b1461032757600080fd5b806339509351116101665780635bcfd212116101405780635bcfd2121461029d57806367e7646f146102b05780636fcfff45146102c357806370a08231146102e357600080fd5b806339509351146102625780633a46b1a81461027557806340c10f191461028857600080fd5b806318160ddd116101a257806318160ddd1461022757806323b872dd14610238578063313ce5671461024b5780633644e5151461025a57600080fd5b806306fdde03146101c9578063095ea7b3146101e7578063113636bd14610207575b600080fd5b6101d1610439565b6040516101de9190611c54565b60405180910390f35b6101fa6101f5366004611ca6565b6104cb565b6040516101de9190611ced565b61021a610215366004611cfb565b6104e5565b6040516101de9190611db4565b6002545b6040516101de9190611dc5565b6101fa610246366004611dd3565b6105f6565b60126040516101de9190611e2c565b61022b61061c565b6101fa610270366004611ca6565b61062b565b61022b610283366004611ca6565b61066a565b61029b610296366004611ca6565b6106b6565b005b61029b6102ab366004611ca6565b6106f4565b61029b6102be366004611cfb565b610910565b6102d66102d1366004611cfb565b610af3565b6040516101de9190611e46565b61022b6102f1366004611cfb565b6001600160a01b031660009081526020819052604090205490565b61029b610b15565b61022b610322366004611cfb565b610b29565b6005546001600160a01b03166040516101de9190611e54565b61022b61034e366004611e62565b610b47565b6101d1610b73565b61022b610369366004611cfb565b610b82565b61029b61037c366004611ca6565b610c09565b6101fa61038f366004611ca6565b610c43565b6101fa6103a2366004611ca6565b610ca2565b61029b6103b5366004611e96565b610cb0565b61029b6103c8366004611edd565b610ce3565b61022b6103db366004611f7c565b6001600160a01b03918216600090815260016020908152604080832093909416825291909152205490565b610419610414366004611fc6565b610dc5565b6040516101de919061202c565b61029b610434366004611cfb565b610e49565b60606003805461044890612050565b80601f016020809104026020016040519081016040528092919081815260200182805461047490612050565b80156104c15780601f10610496576101008083540402835291602001916104c1565b820191906000526020600020905b8154815290600101906020018083116104a457829003601f168201915b5050505050905090565b6000336104d9818585610e83565b60019150505b92915050565b6001600160a01b038116600090815260096020526040812080546060929067ffffffffffffffff81111561051b5761051b612076565b60405190808252806020026020018201604052801561056057816020015b60408051808201909152600080825260208201528152602001906001900390816105395790505b50905060005b82548110156105ee5760008382815481106105835761058361208c565b60009182526020808320909101546040805180820182526001600160a01b03928316808252928b1685526008845281852083865284529320549183019190915284519092508490849081106105da576105da61208c565b602090810291909101015250600101610566565b509392505050565b600033610604858285610f37565b61060f858585610f99565b60019150505b9392505050565b6000610626610fb2565b905090565b3360008181526001602090815260408083206001600160a01b03871684529091528120549091906104d990829086906106659087906120b8565b610e83565b60004382106106945760405162461bcd60e51b815260040161068b90612102565b60405180910390fd5b6001600160a01b0383166000908152600a6020526040902061061590836110a0565b336000908152600c602052604090205460ff166106e657604051631dd2188d60e31b815260040160405180910390fd5b6106f08282611197565b5050565b33600081815260208190526040902054906001600160a01b038416036107405761071d33610b82565b15801561072a5750600081115b1561073b5761073b600033836111a1565b505050565b6001600160a01b0383166107665760405162461bcd60e51b815260040161068b9061216f565b600082116107865760405162461bcd60e51b815260040161068b906121d9565b3360009081526008602090815260408083206001600160a01b0387168452909152812054908190036107f85733600090815260096020908152604082208054600181018255908352912001805473ffffffffffffffffffffffffffffffffffffffff19166001600160a01b0386161790555b61080133610b82565b15801561080e5750600082115b1561081f5761081f600033846111a1565b600061082a33610b82565b90508381101561084c5760405162461bcd60e51b815260040161068b90612243565b3360009081526020819052604090205484111561087b5760405162461bcd60e51b815260040161068b906122ad565b600061088785846120b8565b3360008181526008602090815260408083206001600160a01b038c16845290915290208290559091506108bb9087876112cc565b856001600160a01b0316336001600160a01b03167fabe9bc57326e6dc14febe333c002e5c5e74778324d41653c0e7362469b286caf87846040516109009291906122bd565b60405180910390a3505050505050565b3360009081526008602090815260408083206001600160a01b0385168452909152902054806109515760405162461bcd60e51b815260040161068b9061230c565b3360009081526009602052604081209080805b83548110156109b757856001600160a01b03168482815481106109895761098961208c565b6000918252602090912001546001600160a01b0316036109af57809250600191506109b7565b600101610964565b50806109d55760405162461bcd60e51b815260040161068b9061230c565b6109e08533866111a1565b825483906109f09060019061231c565b81548110610a0057610a0061208c565b9060005260206000200160009054906101000a90046001600160a01b0316838381548110610a3057610a3061208c565b9060005260206000200160006101000a8154816001600160a01b0302191690836001600160a01b0316021790555082805480610a6e57610a6e61232f565b600082815260208082208301600019908101805473ffffffffffffffffffffffffffffffffffffffff19169055909201909255338083526008825260408084206001600160a01b038a16808652935280842084905551919290917fe8514dd4be968431135580c26314ec35afafc8178268603f99625584960d9c169190a35050505050565b6001600160a01b0381166000908152600a60205260408120546104df906112d7565b610b1d611301565b610b27600061132b565b565b6001600160a01b0381166000908152600660205260408120546104df565b6000438210610b685760405162461bcd60e51b815260040161068b90612102565b6104df600b836110a0565b60606004805461044890612050565b6001600160a01b0381166000908152600a60205260408120548015610bf6576001600160a01b0383166000908152600a60205260409020610bc460018361231c565b81548110610bd457610bd461208c565b60009182526020909120015464010000000090046001600160e01b0316610bf9565b60005b6001600160e01b03169392505050565b336000908152600c602052604090205460ff16610c3957604051631dd2188d60e31b815260040160405180910390fd5b6106f0828261138a565b3360008181526001602090815260408083206001600160a01b038716845290915281205490919083811015610c8a5760405162461bcd60e51b815260040161068b9061239f565b610c978286868403610e83565b506001949350505050565b6000336104d9818585610f99565b610cb8611301565b6001600160a01b03919091166000908152600c60205260409020805460ff1916911515919091179055565b83421115610d035760405162461bcd60e51b815260040161068b906123e3565b60007f6e71edae12b1b97f4d1f60370fef10105fa2faae0126114a169c64845d6126c9888888610d328c611394565b89604051602001610d48969594939291906123f3565b6040516020818303038152906040528051906020012090506000610d6b826113bc565b90506000610d7b828787876113cf565b9050896001600160a01b0316816001600160a01b031614610dae5760405162461bcd60e51b815260040161068b90612481565b610db98a8a8a610e83565b50505050505050505050565b60408051808201909152600080825260208201526001600160a01b0383166000908152600a60205260409020805463ffffffff8416908110610e0957610e0961208c565b60009182526020918290206040805180820190915291015463ffffffff8116825264010000000090046001600160e01b0316918101919091529392505050565b610e51611301565b6001600160a01b038116610e775760405162461bcd60e51b815260040161068b906124eb565b610e808161132b565b50565b6001600160a01b038316610ea95760405162461bcd60e51b815260040161068b90612555565b6001600160a01b038216610ecf5760405162461bcd60e51b815260040161068b906125bf565b6001600160a01b0380841660008181526001602090815260408083209487168084529490915290819020849055517f8c5be1e5ebec7d5bd14f71427d1e84f3dd0314c0f7b2291e5b200ac8c7c3b92590610f2a908590611dc5565b60405180910390a3505050565b6001600160a01b038381166000908152600160209081526040808320938616835292905220546000198114610f935781811015610f865760405162461bcd60e51b815260040161068b90612603565b610f938484848403610e83565b50505050565b604051631dd2188d60e31b815260040160405180910390fd5b6000306001600160a01b037f00000000000000000000000000000000000000000000000000000000000000001614801561100b57507f000000000000000000000000000000000000000000000000000000000000000046145b1561103557507f000000000000000000000000000000000000000000000000000000000000000090565b6106267f00000000000000000000000000000000000000000000000000000000000000007f00000000000000000000000000000000000000000000000000000000000000007f00000000000000000000000000000000000000000000000000000000000000006113f7565b8154600090818160058111156110fa5760006110bb84611431565b6110c5908561231c565b600088815260209020909150869082015463ffffffff1611156110ea578091506110f8565b6110f58160016120b8565b92505b505b8082101561114757600061110e8383611519565b600088815260209020909150869082015463ffffffff16111561113357809150611141565b61113e8160016120b8565b92505b506110fa565b80156111815761116a8661115c60018461231c565b600091825260209091200190565b5464010000000090046001600160e01b0316611184565b60005b6001600160e01b03169695505050505050565b6106f08282611534565b816001600160a01b0316836001600160a01b0316141580156111c35750600081115b1561073b576001600160a01b03831615611248576001600160a01b0383166000908152600a6020526040812081906111fe9061157585611581565b91509150846001600160a01b03167f794cf5de56d1cb820020e7a86eea7506552ebba68f238b9e978ebc56403a94a2838360405161123d9291906122bd565b60405180910390a250505b6001600160a01b0382161561073b576001600160a01b0382166000908152600a60205260408120819061127e906116d585611581565b91509150836001600160a01b03167fdec2bacdd2f05b59de34da9b523dff8be42e5e38e818c82fdb0bae774387a72483836040516112bd9291906122bd565b60405180910390a25050505050565b61073b8383836111a1565b600063ffffffff8211156112fd5760405162461bcd60e51b815260040161068b9061266d565b5090565b6005546001600160a01b03163314610b275760405162461bcd60e51b815260040161068b906126af565b600580546001600160a01b0383811673ffffffffffffffffffffffffffffffffffffffff19831681179093556040519116919082907f8be0079c531659141344cd1fd0a4f28419497f9722a3daafe3b4186f6b6457e090600090a35050565b6106f082826116e1565b6001600160a01b03811660009081526006602052604090208054600181018255905b50919050565b60006104df6113c9610fb2565b836116f9565b60008060006113e08787878761172c565b915091506113ed816117e3565b5095945050505050565b600083838346306040516020016114129594939291906126bf565b6040516020818303038152906040528051906020012090509392505050565b60008160000361144357506000919050565b6000600161145084611892565b901c6001901b905060018184816114695761146961270b565b048201901c905060018184816114815761148161270b565b048201901c905060018184816114995761149961270b565b048201901c905060018184816114b1576114b161270b565b048201901c905060018184816114c9576114c961270b565b048201901c905060018184816114e1576114e161270b565b048201901c905060018184816114f9576114f961270b565b048201901c9050610615818285816115135761151361270b565b04611926565b60006115286002848418612721565b610615908484166120b8565b61153e828261193c565b6002546001600160e01b0310156115675760405162461bcd60e51b815260040161068b9061278f565b610f93600b6116d583611581565b6000610615828461231c565b825460009081908181156115ce5761159e8761115c60018561231c565b60408051808201909152905463ffffffff8116825264010000000090046001600160e01b031660208201526115e3565b60408051808201909152600080825260208201525b905080602001516001600160e01b0316935061160384868863ffffffff16565b925060008211801561161b5750805163ffffffff1643145b1561166057611629836119e6565b6116388861115c60018661231c565b80546001600160e01b03929092166401000000000263ffffffff9092169190911790556116cb565b866040518060400160405280611675436112d7565b63ffffffff168152602001611689866119e6565b6001600160e01b0390811690915282546001810184556000938452602093849020835194909301519091166401000000000263ffffffff909316929092179101555b5050935093915050565b600061061582846120b8565b6116eb8282611a0f565b610f93600b61157583611581565b6000828260405160200161170e92919061279f565b60405160208183030381529060405280519060200120905092915050565b6000807f7fffffffffffffffffffffffffffffff5d576e7357a4501ddfe92f46681b20a083111561176357506000905060036117da565b60006001878787876040516000815260200160405260405161178894939291906127eb565b6020604051602081039080840390855afa1580156117aa573d6000803e3d6000fd5b5050604051601f1901519150506001600160a01b0381166117d3576000600192509250506117da565b9150600090505b94509492505050565b60008160048111156117f7576117f7612829565b036117ff5750565b600181600481111561181357611813612829565b036118305760405162461bcd60e51b815260040161068b90612873565b600281600481111561184457611844612829565b036118615760405162461bcd60e51b815260040161068b906128b7565b600381600481111561187557611875612829565b03610e805760405162461bcd60e51b815260040161068b90612921565b600080608083901c156118a757608092831c92015b604083901c156118b957604092831c92015b602083901c156118cb57602092831c92015b601083901c156118dd57601092831c92015b600883901c156118ef57600892831c92015b600483901c1561190157600492831c92015b600283901c1561191357600292831c92015b600183901c156104df5760010192915050565b60008183106119355781610615565b5090919050565b6001600160a01b0382166119625760405162461bcd60e51b815260040161068b90612965565b61196e60008383611ae6565b806002600082825461198091906120b8565b90915550506001600160a01b038216600081815260208190526040808220805485019055517fddf252ad1be2c89b69c2b068fc378daa952ba7f163c4a11628f55a4df523b3ef906119d2908590611dc5565b60405180910390a36106f060008383611af1565b60006001600160e01b038211156112fd5760405162461bcd60e51b815260040161068b906129cf565b6001600160a01b038216611a355760405162461bcd60e51b815260040161068b90612a39565b611a4182600083611ae6565b6001600160a01b03821660009081526020819052604090205481811015611a7a5760405162461bcd60e51b815260040161068b90612aa3565b6001600160a01b0383166000818152602081905260408082208585039055600280548690039055519091907fddf252ad1be2c89b69c2b068fc378daa952ba7f163c4a11628f55a4df523b3ef90611ad2908690611dc5565b60405180910390a361073b83600084611af1565b61073b838383611afc565b61073b838383611b65565b6001600160a01b0383161561073b576001600160a01b038316600090815260208190526040812054611b2f90839061231c565b90506000611b3c85611b7d565b905081811115611b5e5760405162461bcd60e51b815260040161068b90612b0d565b5050505050565b611b71836000836111a1565b61073b600083836111a1565b6001600160a01b038116600090815260096020526040812081805b82548110156105ee576000838281548110611bb557611bb561208c565b60009182526020808320909101546001600160a01b03898116845260088352604080852091909216808552925290912054909150611bf390846120b8565b925050600101611b98565b60005b83811015611c19578181015183820152602001611c01565b50506000910152565b6000611c2c825190565b808452602084019350611c43818560208601611bfe565b601f01601f19169290920192915050565b602080825281016106158184611c22565b60006001600160a01b0382166104df565b611c7f81611c65565b8114610e8057600080fd5b80356104df81611c76565b80611c7f565b80356104df81611c95565b60008060408385031215611cbc57611cbc600080fd5b6000611cc88585611c8a565b9250506020611cd985828601611c9b565b9150509250929050565b8015155b82525050565b602081016104df8284611ce3565b600060208284031215611d1057611d10600080fd5b6000611d1c8484611c8a565b949350505050565b611ce781611c65565b80611ce7565b80516040830190611d448482611d24565b506020820151610f936020850182611d2d565b6000611d638383611d33565b505060400190565b6000611d75825190565b80845260209384019383018060005b83811015611da9578151611d988882611d57565b975060208301925050600101611d84565b509495945050505050565b602080825281016106158184611d6b565b602081016104df8284611d2d565b600080600060608486031215611deb57611deb600080fd5b6000611df78686611c8a565b9350506020611e0886828701611c8a565b9250506040611e1986828701611c9b565b9150509250925092565b60ff8116611ce7565b602081016104df8284611e23565b63ffffffff8116611ce7565b602081016104df8284611e3a565b602081016104df8284611d24565b600060208284031215611e7757611e77600080fd5b6000611d1c8484611c9b565b801515611c7f565b80356104df81611e83565b60008060408385031215611eac57611eac600080fd5b6000611eb88585611c8a565b9250506020611cd985828601611e8b565b60ff8116611c7f565b80356104df81611ec9565b600080600080600080600060e0888a031215611efb57611efb600080fd5b6000611f078a8a611c8a565b9750506020611f188a828b01611c8a565b9650506040611f298a828b01611c9b565b9550506060611f3a8a828b01611c9b565b9450506080611f4b8a828b01611ed2565b93505060a0611f5c8a828b01611c9b565b92505060c0611f6d8a828b01611c9b565b91505092959891949750929550565b60008060408385031215611f9257611f92600080fd5b6000611f9e8585611c8a565b9250506020611cd985828601611c8a565b63ffffffff8116611c7f565b80356104df81611faf565b60008060408385031215611fdc57611fdc600080fd5b6000611fe88585611c8a565b9250506020611cd985828601611fbb565b6001600160e01b038116611ce7565b805160408301906120198482611e3a565b506020820151610f936020850182611ff9565b604081016104df8284612008565b634e487b7160e01b600052602260045260246000fd5b60028104600182168061206457607f821691505b6020821081036113b6576113b661203a565b634e487b7160e01b600052604160045260246000fd5b634e487b7160e01b600052603260045260246000fd5b634e487b7160e01b600052601160045260246000fd5b808201808211156104df576104df6120a2565b601f81526000602082017f4552433230566f7465733a20626c6f636b206e6f7420796574206d696e656400815291505b5060200190565b602080825281016104df816120cb565b602181526000602082017f4552433230566f7465733a207a65726f20616464726573732064656c6567617481527f6500000000000000000000000000000000000000000000000000000000000000602082015291505b5060400190565b602080825281016104df81612112565b602481526000602082017f4552433230566f7465733a20766f74696e6720706f776572206d75737420626581527f203e20300000000000000000000000000000000000000000000000000000000060208201529150612168565b602080825281016104df8161217f565b602d81526000602082017f4552433230566f7465733a204e6f7420656e6f75676820766f74696e6720706f81527f7765722072656d61696e696e670000000000000000000000000000000000000060208201529150612168565b602080825281016104df816121e9565b602e81526000602082017f4552433230566f7465733a20766f74696e6720706f776572206578636565647381527f20746f6b656e2062616c616e636500000000000000000000000000000000000060208201529150612168565b602080825281016104df81612253565b604081016122cb8285611d2d565b6106156020830184611d2d565b601f81526000602082017f4552433230566f7465733a2044656c656761746565206e6f7420666f756e6400815291506120fb565b602080825281016104df816122d8565b818103818111156104df576104df6120a2565b634e487b7160e01b600052603160045260246000fd5b602581526000602082017f45524332303a2064656372656173656420616c6c6f77616e63652062656c6f7781527f207a65726f00000000000000000000000000000000000000000000000000000060208201529150612168565b602080825281016104df81612345565b601d81526000602082017f45524332305065726d69743a206578706972656420646561646c696e65000000815291506120fb565b602080825281016104df816123af565b60c081016124018289611d2d565b61240e6020830188611d24565b61241b6040830187611d24565b6124286060830186611d2d565b6124356080830185611d2d565b61244260a0830184611d2d565b979650505050505050565b601e81526000602082017f45524332305065726d69743a20696e76616c6964207369676e61747572650000815291506120fb565b602080825281016104df8161244d565b602681526000602082017f4f776e61626c653a206e6577206f776e657220697320746865207a65726f206181527f646472657373000000000000000000000000000000000000000000000000000060208201529150612168565b602080825281016104df81612491565b602481526000602082017f45524332303a20617070726f76652066726f6d20746865207a65726f2061646481527f726573730000000000000000000000000000000000000000000000000000000060208201529150612168565b602080825281016104df816124fb565b602281526000602082017f45524332303a20617070726f766520746f20746865207a65726f20616464726581527f737300000000000000000000000000000000000000000000000000000000000060208201529150612168565b602080825281016104df81612565565b601d81526000602082017f45524332303a20696e73756666696369656e7420616c6c6f77616e6365000000815291506120fb565b602080825281016104df816125cf565b602681526000602082017f53616665436173743a2076616c756520646f65736e27742066697420696e203381527f322062697473000000000000000000000000000000000000000000000000000060208201529150612168565b602080825281016104df81612613565b60208082527f4f776e61626c653a2063616c6c6572206973206e6f7420746865206f776e6572910190815260006120fb565b602080825281016104df8161267d565b60a081016126cd8288611d2d565b6126da6020830187611d2d565b6126e76040830186611d2d565b6126f46060830185611d2d565b6127016080830184611d24565b9695505050505050565b634e487b7160e01b600052601260045260246000fd5b6000826127305761273061270b565b500490565b603081526000602082017f4552433230566f7465733a20746f74616c20737570706c79207269736b73206f81527f766572666c6f77696e6720766f7465730000000000000000000000000000000060208201529150612168565b602080825281016104df81612735565b7f1901000000000000000000000000000000000000000000000000000000000000815260020160006127d18285611d2d565b6020820191506127e18284611d2d565b5060200192915050565b608081016127f98287611d2d565b6128066020830186611e23565b6128136040830185611d2d565b6128206060830184611d2d565b95945050505050565b634e487b7160e01b600052602160045260246000fd5b601881526000602082017f45434453413a20696e76616c6964207369676e61747572650000000000000000815291506120fb565b602080825281016104df8161283f565b601f81526000602082017f45434453413a20696e76616c6964207369676e6174757265206c656e67746800815291506120fb565b602080825281016104df81612883565b602281526000602082017f45434453413a20696e76616c6964207369676e6174757265202773272076616c81527f756500000000000000000000000000000000000000000000000000000000000060208201529150612168565b602080825281016104df816128c7565b601f81526000602082017f45524332303a206d696e7420746f20746865207a65726f206164647265737300815291506120fb565b602080825281016104df81612931565b602781526000602082017f53616665436173743a2076616c756520646f65736e27742066697420696e203281527f323420626974730000000000000000000000000000000000000000000000000060208201529150612168565b602080825281016104df81612975565b602181526000602082017f45524332303a206275726e2066726f6d20746865207a65726f2061646472657381527f730000000000000000000000000000000000000000000000000000000000000060208201529150612168565b602080825281016104df816129df565b602281526000602082017f45524332303a206275726e20616d6f756e7420657863656564732062616c616e81527f636500000000000000000000000000000000000000000000000000000000000060208201529150612168565b602080825281016104df81612a49565b603c81526000602082017f4552433230566f7465733a205472616e7366657220626c6f636b65642c20646581527f6c65676174696f6e2065786365656473206e65772062616c616e63650000000060208201529150612168565b602080825281016104df81612ab356fea26469706673582212202d0c49fc947b3d45f082ba61f3628dfe7e3bd9bace9ef3552416ce512c61d53664736f6c634300081c0033",
    "linkReferences": {},
    "deployedLinkReferences": {}
}